:020000040800F2
:100000000000022065130008B9120008C1120008A0
:10001000C9120008D1120008D9120008000000001F
:10002000000000000000000000000000E1120008D5
:10003000EF12000800000000FD1200080B1300087A
:10004000B5130008B5130008B5130008B513000870
:10005000B5130008B5130008B5130008B513000860
:10006000B5130008B5130008B5130008B513000850
:10007000B5130008B5130008B5130008B513000840
:10008000B5130008B5130008B51300080000000000
:10009000000000000000000000000000B513000890
:1000A000B5130008B5130008B5130008B513000810
:1000B000191300082D130008B5130008B513000824
:1000C000B5130008B5130008B5130008B5130008F0
:1000D000B5130008B5130008B513000800000000B0
:1000E000B5130008B5130008B513000800000000A0
:1000F000000000000000000000000000B513000830
:1001000000000000B5130008B5130008B51300087F
:1001100000000000000000000000000000000000DF
:10012000B5130008B5130008B5130008B51300088F
:10013000B5130008000000000000000000000000EF
:10014000000000000000000000000000B5130008DF
:10015000B5130008B5130008B5130008B51300085F
:10016000B5130008B51300080000000000000000EF
:10017000000000000000000000000000000000007F
:1001800000000000B513000800000000000000009F
:08019000B5130008B5130008C7
:1001980010B5054C237833B9044B13B10448AFF3B9
:1001A80000800123237010BD3C00002000000000E7
:1001B800302C000808B5034B1BB103490348AFF3C3
:1001C800008008BD0000000040000020302C00081E
:1001D80053B94AB9002908BF00281CBF4FF0FF31A6
:1001E8004FF0FF3000F088B9ADF1080C6DE904CE8E
:1001F80000F006F8DDF804E0DDE9022304B07047FA
:100208002DE9F047089D8E4604468846002B4AD1C2
:100218008A42174662D9B2FA82F64EB1C6F1200375
:1002280001FA06F820FA03F3B74043EA0808B44095
:100238004FEA174E1FFA87FCB8FBFEF1230C0EFBA2
:10024800118843EA084301FB0CF29A4209D9FB18CA
:1002580001F1FF3080F0EA809A4240F2E7800239EB
:100268003B449A1AA3B2B2FBFEF00EFB102243EAFB
:10027800024300FB0CFC9C4509D9FB1800F1FF3236
:1002880080F0D6809C4540F2D3803B44023840EA57
:100298000140A3EB0C0300211DB1F3400022C5E986
:1002A8000032BDE8F0878B4205D90DB1C5E90001E0
:1002B80000210846F5E7B3FA83F1002946D17345D2
:1002C80002D3824200F20581841A6EEB03020120F8
:1002D8009046002DE5D0C5E90048E2E7002A00F085
:1002E8009080B2FA82F6002E40F0A4808A1A030C9D
:1002F8004FEA174E80B2BCB20121B2FBFEFC0EFBE6
:100308001C2243EA024304FB0CF29A4207D9FB1869
:100318000CF1FF3802D29A4200F2E080C4469B1AE0
:10032800B3FBFEF20EFB123340EA034302FB04F474
:100338009C4207D9FB1802F1FF3002D29C4200F21E
:10034800CA8002461B1B42EA0C40A5E7C1F1200601
:100358008B4022FA06F71F430EFA01F420FA06F33F
:100368002EFA06FE4FEA1749234300FA01F81FFA4E
:1003780087FCBEFBF9F01C0C09FB10EE44EA0E44A6
:1003880000FB0CFEA64502FA01F209D93C1900F15E
:10039800FF3A80F09C80A64540F2998002383C44A0
:1003A800A4EB0E041FFA83FEB4FBF9F309FB134414
:1003B8004EEA044403FB0CFCA44508D93C1903F19C
:1003C800FF3E80F08280A4457FD9023B3C4443EA4B
:1003D8000040A4EB0C04A0FB02EC64457346E14624
:1003E80062D35FD05DB1B8EB030264EB090404FA91
:1003F80006F622FA01F31E43CC40C5E90064002149
:100408004FE7B1FBF2FC010C41EA0E4180B240EA31
:1004180001423B4638463C46B846BE462026B1FB1C
:10042800F7F1A2EB080241EA0C4166E7014618E73A
:1004380010462CE7C6F120022EFA02F3B740B1406D
:1004480020FA02F24FEA174E0A43B3FBFEF8BCB299
:100458000EFB1833110C41EA034108FB04F9B040C4
:1004680089454FEA104380B23ED9791808F1FF3C1C
:1004780001D289451FD8A1EB0901B1FBFEF909FB9F
:1004880004F80EFB191192B242EA0142424529D200
:10049800BA1809F1FF31C4D24245C2D2A9F102010A
:1004A8003A44BEE7F0459DD2BEEB02036CEB070C65
:1004B8000138E14696E7A7EB09094944A8F1020C7F
:1004C800B1FBFEF909FB04F8DBE773467FE750460A
:1004D80066E70846FDE63B44023A33E7ACF1020C16
:1004E8003B441CE749469CE7A1EB0901C446B1FB24
:1004F800FEF909FB04F8C4E7704700BF80B582B075
:1005080000AF0346FB7100225421234801F094FAFE
:100518000022A821204801F08FFAFB79032B37D855
:1005280001A252F823F000BF410500085705000852
:100538006D0500088305000801224021164801F0D6
:100548007BFA01228021144801F076FA20E001228A
:100558001021114801F070FA012280210E4801F0A3
:100568006BFA15E0012204210B4801F065FA01221B
:100578000821094801F060FA0AE00122042106482E
:1005880001F05AFA01222021034801F055FA00BF70
:1005980000BF0837BD4680BD0000024080B582B06C
:1005A80000AF0023FB714EE0FB792B4A32F8133081
:1005B80001221946294801F03FFA0023BB7133E0B4
:1005C800BB79274A32F813301946244801F01CFA3F
:1005D8000346012B22D1FA79BB79224992000A44B9
:1005E80013441A78204B1A701F4B1A781F4B1A7035
:1005F8001F4B1B78DBB2002B03D01B4B1A781D4B0B
:100608001A7000BFBB79164A32F8133019461348DE
:1006180001F0FAF90346012BF4D002E0124B002254
:100628001A70BB790133BB71BB79032BC8D9FB792D
:10063800094A32F8133000221946084801F0FCF93B
:10064800FB790133FB71FB79032BADD900BF00BFE8
:100658000837BD4680BD00BF10000020000C0240D6
:100668001800002020000020630000206400002003
:100678005B0000206200002080B582B000AF264BEE
:100688001B78022B44D1254B1B78303BDBB21A4632
:10069800920013445B00DAB2204B5B781344DBB260
:1006A800303BFB711C4B00221A70022200211B48B0
:1006B80002F08EFA1A4B1B78DBB2002B06D1194ACE
:1006C800FB791370164B01221A7021E0144B1B782A
:1006D800DBB2012B1CD1144AFB791370104B00229A
:1006E8001A70124B00221A700E4B1B78DAB2104B9C
:1006F8001A700D4B1B78DAB20E4B1A700C4B1B7824
:10070800DAB20C4B1B78DBB21344DAB20A4B1A701C
:1007180000BF0837BD4680BD6A0000206800002081
:100728005E0000205C0000205D0000205B000020CF
:1007380000000020010000200200002080B500AF6A
:10074800274B1B78DBB2002B26D0264B1B78002BBF
:1007580022D0254B1B78012B1ED8224B1B782F2B20
:1007680016D9204B1B78392B12D81F4B1B781A46E9
:100778001C4B19781D4B99541B4B1B780133DAB26B
:10078800194B1A70184B1B78022B01D1FFF774FF15
:10079800144B00221A7020E0154B1B78002B1CD03C
:1007A800134B1B78232B11D1124B00221A700C4BC0
:1007B80000221A70104B00221A700B4B00221A707C
:1007C80002220021094802F003FA06E0084B1B78D0
:1007D800432B02D1094B01221A7000BF80BD00BF14
:1007E8005B000020620000206A00002068000020F2
:1007F80064000020610000205E0000205F000020EF
:1008080080B584B000AF7860294A7B6813441B78B0
:10081800FB73FB7BDB09DBB21A460121254801F09B
:100828000BF9FB7B9B09DBB203F00103DBB21A4631
:100838000221204801F000F9FB7B5B09DBB203F0E1
:100848000103DBB21A4604211A4801F0F5F8FB7BD4
:100858001B09DBB203F00103DBB21A460821154875
:1008680001F0EAF8FB7BDB08DBB203F00103DBB243
:100878001A4610210F4801F0DFF8FB7B9B08DBB21A
:1008880003F00103DBB21A4620210A4801F0D4F82C
:10089800FB7B5B08DBB203F00103DBB21A464021A5
:1008A800044801F0C9F800BF1037BD4680BD00BF3D
:1008B800040000200004024080B584B000AF7860D6
:1008C8002C4A7B6813441B78FB73FB7BDB09DBB288
:1008D8001A464FF48071284801F0AEF8FB7B9B095B
:1008E800DBB203F00103DBB21A464FF40071224871
:1008F80001F0A2F8FB7B5B09DBB203F00103DBB27A
:100908001A464FF480611C4801F096F8FB7B1B09DE
:10091800DBB203F00103DBB21A464FF4004116487C
:1009280001F08AF8FB7BDB08DBB203F00103DBB2E2
:100938001A464FF48061114801F07EF8FB7B9B0852
:10094800DBB203F00103DBB21A464FF400610B4837
:1009580001F072F8FB7B5B08DBB203F00103DBB24A
:100968001A464FF48051054801F066F800BF103769
:10097800BD4680BD0400002000000240000802407F
:1009880080B584B000AF03460A46FB711346BB71BD
:10099800FB79384AA2FB0323DB08FB73FA79354B52
:1009A800A3FB0213D9080B469B000B445B00D31A28
:1009B800BB73BB792F4AA2FB0323DB087B73BA798D
:1009C8002C4BA3FB0213D9080B469B000B445B007E
:1009D800D31A3B7300224FF48071274801F02CF89A
:1009E80001224FF40071244801F026F8BB7B184619
:1009F800FFF706FF012000F04DFD00224FF40071C3
:100A08001D4801F019F801224FF480711A4801F0CD
:100A180013F8FB7B1846FFF7F3FE012000F03AFDC0
:100A280000224FF48071154801F006F801224FF4B6
:100A38000071124801F000F83B7B1846FFF73CFFB5
:100A4800012000F027FD00224FF400710B4800F050
:100A5800F3FF01224FF48071084800F0EDFF7B7B23
:100A68001846FFF729FF012000F014FD00BF1037DA
:100A7800BD4680BDCDCCCCCC00040240000802406D
:100A880080B500AF01224FF40071104800F0D4FF88
:100A980001224FF480710D4800F0CEFF01224FF47F
:100AA80000710B4800F0C8FF01224FF4807108481C
:100AB80000F0C2FF00225421064800F0BDFF0022CA
:100AC800A821044800F0B8FF00BF80BD000802401C
:100AD800000402400000024080B582B000AF786098
:100AE800934B1B78422B03D0914B1B78432B02D19D
:100AF800904B00221A707B681B68B3F1804F40F05E
:100B0800EB808B4B1B78412B12D18A4B1B78002B27
:100B18000ED1884B01221A70874B00221A70864B1F
:100B28001B78DBB21846FFF7E9FC844B00221A70E9
:100B3800804B1B78012B40F0CF807D4B1B78422BDC
:100B480000F0CA807A4B1B78432B00F0C5807B4BA2
:100B58001B78DBB20133DAB2784B1A70764B1B780C
:100B6800DBB2032B00F2B88001A252F823F000BFD9
:100B7800890B0008DD0B00082F0C0008810C000809
:100B88006F4B1B78DAB26D4B1B78DBB2D31ADAB233
:100B98006C4B1A706C4B1B78DAB2684B1B78DBB263
:100BA800D31ADAB2694B1A70644B1B78DAB2644B09
:100BB8001B78DBB29A42C0F088805F4B01221A7022
:100BC8005D4B1B78DBB21846FFF798FC5B4B0022A5
:100BD8001A707AE05E4B1B78DAB2584B1B78DBB29E
:100BE800D31ADAB2574B1A70594B1B78DAB2534BF7
:100BF8001B78DBB2D31ADAB2544B1A704F4B1B78FE
:100C0800DAB2534B1B78DBB29A4260D34A4B0222CA
:100C18001A70494B1B78DBB21846FFF76FFC474B3D
:100C280000221A7053E0484B1B78DAB2434B1B780A
:100C3800DBB2D31ADAB2434B1A70414B1B78DAB2E3
:100C48003E4B1B78DBB2D31ADAB2404B1A703B4BDF
:100C58001B78DAB23A4B1B78DBB29A4239D3364B5F
:100C680003221A70344B1B78DBB21846FFF746FC98
:100C7800324B00221A702CE0354B1B78DAB22F4B1E
:100C88001B78DBB2D31ADAB22E4B1A70304B1B78B2
:100C9800DAB22A4B1B78DBB2D31ADAB22B4B1A70B2
:100CA800264B1B78DAB22A4B1B78DBB29A4212D356
:100CB800214B00221A70204B1B78DBB21846FFF735
:100CC8001DFC1E4B00221A7005E000BF04E000BFA7
:100CD80002E000BF00E000BF7B681B681D4A93422A
:100CE80021D11D4B01221A70114B1B782A2B1AD1C6
:100CF8001A4B1B78DBB2002B15D00E4B1B78002B40
:100D080011D1174B01221A70164B00221A70164B7C
:100D180000221A70154B00221A70154B00221A7007
:100D28000E4B00221A7000BF0837BD4680BD00BFB9
:100D38006400002060000020FC000020FD0000206E
:100D48000000002058000020020000205900002068
:100D580001000020000400405A0000205F0000202D
:100D68005B0000206A0000205C0000205D0000207D
:100D78005E00002080B500AF00F01AFB00F05CF8C0
:100D880000F05EF900F00EF900F0BEF8224801F01C
:100D98003BFB224801F038FB214B1B78DBB2002BD0
:100DA80006D01F4B00221A70FFF7F8FBFFF7C6FCAE
:100DB8001C4B1B782D2B09D11B4B1B78DBB21B4A14
:100DC8001278D2B211461846FFF7DAFD154B1B7898
:100DD800422B17D1FFF754FE1021154800F045FEAD
:100DE8002021134800F041FEC82000F053FB1021D9
:100DF8000F4800F03AFE20210D4800F036FEC820CA
:100E080000F048FB074B1B78432B01D1FFF738FE56
:100E1800084B00221A70BFE7B40000206C000020C5
:100E28005A000020640000205800002059000020CB
:100E3800000002406200002080B594B000AF07F1C6
:100E4800200330220021184601F0C2FE07F10C03EE
:100E580000221A605A609A60DA601A610023BB6047
:100E6800274B1B6C264A43F080531364244B1B6C9E
:100E780003F08053BB60BB6800237B60214B1B6879
:100E8800204A43F4404313601E4B1B6803F440435D
:100E98007B607B6801233B624FF480337B620223D3
:100EA800BB634FF48003FB6304233B6440237B64F0
:100EB8000223BB640423FB6407F12003184600F0F7
:100EC800EFFD0346002B01D000F080F90F23FB60F3
:100ED80002233B61A0237B610023BB610023FB61EC
:100EE80007F10C030021184601F052F80346002BC5
:100EF80001D000F06BF900BF5037BD4680BD00BF80
:100F0800003802400070004080B586B000AF07F19D
:100F1800080300221A605A609A60DA603B46002291
:100F28001A605A601E4B4FF080421A601C4B41F603
:100F38003F725A601A4B00229A60194B40F2E7320E
:100F4800DA60174B00221A61154B00229A61144887
:100F580001F00AFA0346002B01D000F037F94FF4EC
:100F68008053BB6007F1080319460D4801F09EFB4A
:100F78000346002B01D000F029F900233B60002331
:100F88007B603B461946064801F0A0FD0346002B4E
:100F980001D000F01BF900BF1837BD4680BD00BF67
:100FA8006C00002080B586B000AF07F1080300226E
:100FB8001A605A609A60DA603B4600221A605A60EA
:100FC8001D4B1E4A1A601C4B41F63F725A601A4B61
:100FD80000229A60184B6322DA60174B00221A61CC
:100FE800154B00229A61144801F0BEF90346002B04
:100FF80001D000F0EBF84FF48053BB6007F1080311
:1010080019460D4801F052FB0346002B01D000F0B1
:10101800DDF800233B6000237B603B461946064809
:1010280001F054FD0346002B01D000F0CFF800BFBB
:101038001837BD4680BD00BFB40000200004004042
:1010480080B58AB000AF07F1140300221A605A6015
:101058009A60DA601A6100233B61574B1B6B564A52
:1010680043F080031363544B1B6B03F080033B6115
:101078003B690023FB60504B1B6B4F4A43F0010355
:1010880013634D4B1B6B03F00103FB60FB680023EC
:10109800BB60494B1B6B484A43F002031363464B42
:1010A8001B6B03F00203BB60BB6800237B60424BF1
:1010B8001B6B414A43F0080313633F4B1B6B03F060
:1010C80008037B607B6800233B603B4B1B6B3A4A01
:1010D80043F004031363384B1B6B03F004033B60BA
:1010E8003B68002248F2FC71344800F0A5FC00225D
:1010F800FF21334800F0A0FC00224FF47061314812
:1011080000F09AFC00224FF4F8512F4800F094FCAC
:1011180001224FF440712A4800F08EFC48F2FC731B
:101128007B610123BB610023FB6100233B6207F164
:1011380014031946214800F0E3FA40F2FF337B61BB
:101148000123BB610023FB6100233B6207F1140309
:1011580019461B4800F0D4FA4FF470637B610123F1
:10116800BB610023FB6100233B6207F114031946AE
:10117800144800F0C5FA4FF470437B610023BB614B
:101188000223FB6107F1140319460E4800F0B8FA70
:101198004FF4F8537B610123BB610023FB610023FB
:1011A8003B6207F114031946074800F0A9FA00BF8B
:1011B8002837BD4680BD00BF00380240000002400D
:1011C80000040240000C02400008024080B400AF56
:1011D80072B600BF00BFFDE780B483B000AF002344
:1011E8007B60104B5B6C0F4A43F4804353640D4B98
:1011F8005B6C03F480437B607B6800233B60094B96
:101208001B6C084A43F080531364064B1B6C03F0B5
:1012180080533B603B6800BF0C37BD465DF8047BDC
:10122800704700BF0038024080B584B000AF7860D6
:101238007B681B68B3F1804F16D10023FB601A4B03
:101248001B6C194A43F001031364174B1B6C03F022
:101258000103FB60FB68002201211C2000F019FA41
:101268001C2000F032FA1AE07B681B680F4A934290
:1012780015D10023BB600C4B1B6C0B4A43F00203D7
:101288001364094B1B6C03F00203BB60BB680022AC
:1012980001211D2000F0FDF91D2000F016FA00BF05
:1012A8001037BD4680BD00BF003802400004004032
:1012B80080B400AF00BFFDE780B400AF00BFFDE71A
:1012C80080B400AF00BFFDE780B400AF00BFFDE70A
:1012D80080B400AF00BFFDE780B400AF00BFBD46DB
:1012E8005DF8047B704780B400AF00BFBD465DF871
:1012F800047B704780B400AF00BFBD465DF8047B37
:10130800704780B500AF00F0A5F800BF80BD0000B1
:1013180080B500AF024801F0D9F800BF80BD00BF1A
:101328006C00002080B500AF024801F0CFF800BF84
:1013380080BD00BFB400002080B400AF064BD3F8D6
:101348008830054A43F47003C2F8883000BFBD46B0
:101358005DF8047B704700BF00ED00E0DFF834D093
:10136800FFF7EAFF0C480D490D4A002302E0D45864
:10137800C4500433C4188C42F9D30A4A0A4C0023D7
:1013880001E013600432A242FBD301F029FCFFF70D
:10139800F1FC704700000220000000203C00002003
:1013A800682C00083C00002004010020FEE7000033
:1013B80080B500AF0E4B1B680D4A43F400731360F1
:1013C8000B4B1B680A4A43F480631360084B1B6885
:1013D800074A43F480731360032000F04FF90F208D
:1013E80000F008F8FFF7F8FE0023184680BD00BF9C
:1013F800003C024080B582B000AF7860124B1A689A
:10140800124B1B7819464FF47A73B3FBF1F3B2FB16
:10141800F3F3184600F067F90346002B01D00123C7
:101428000EE07B680F2B0AD8002279684FF0FF3056
:1014380000F02FF9064A7B681360002300E00123BF
:1014480018460837BD4680BD30000020380000200F
:101458003400002080B400AF064B1B781A46064BB8
:101468001B681344044A136000BFBD465DF8047B43
:10147800704700BF380000200001002080B400AF92
:10148800034B1B681846BD465DF8047B704700BFD8
:101498000001002080B584B000AF7860FFF7EEFF50
:1014A800B8607B68FB60FB68B3F1FF3F05D00A4B6F
:1014B8001B781A46FB681344FB6000BFFFF7DEFF8A
:1014C8000246BB68D31AFA689A42F7D800BF00BF31
:1014D8001037BD4680BD00BF3800002080B485B0FD
:1014E80000AF78607B6803F00703FB600C4BDB6898
:1014F800BB60BA684FF6FF031340BB60FB681A0273
:10150800BB68134343F0BF6343F40033BB60044A32
:10151800BB68D36000BF1437BD465DF8047B7047D5
:1015280000ED00E080B400AF044BDB681B0A03F059
:1015380007031846BD465DF8047B704700ED00E0E0
:1015480080B483B000AF0346FB7197F90730002BD6
:101558000BDBFB7903F01F02074997F907305B099A
:10156800012000FA02F241F8232000BF0C37BD46E3
:101578005DF8047B704700BF00E100E080B483B0F1
:1015880000AF03463960FB7197F90730002B0ADB7F
:101598003B68DAB20C4997F907301201D2B20B4412
:1015A80083F800230AE03B68DAB20849FB7903F0C4
:1015B8000F03043B1201D2B20B441A7600BF0C375A
:1015C800BD465DF8047B704700E100E000ED00E0F7
:1015D80080B489B000AFF860B9607A60FB6803F046
:1015E8000703FB61FB69C3F10703042B28BF04232E
:1015F800BB61FB690433062B02D9FB69033B00E09E
:1016080000237B614FF0FF32BB6902FA03F3DA4330
:10161800BB681A407B699A404FF0FF317B6901FA39
:1016280003F3D9437B680B40134318462437BD4660
:101638005DF8047B7047000080B582B000AF786029
:101648007B68013BB3F1807F01D301230FE00A4A95
:101658007B68013B53600F214FF0FF30FFF78EFF8F
:10166800054B00229A60044B07221A600023184693
:101678000837BD4680BD00BF10E000E080B582B0ED
:1016880000AF78607868FFF729FF00BF0837BD46CC
:1016980080BD80B586B000AF0346B9607A60FB7341
:1016A80000237B61FFF73EFF78617A68B968786943
:1016B800FFF78EFF024697F90F3011461846FFF7DD
:1016C8005DFF00BF1837BD4680BD80B582B000AF52
:1016D8000346FB7197F907301846FFF731FF00BF43
:1016E8000837BD4680BD80B582B000AF78607868A5
:1016F800FFF7A2FF034618460837BD4680BD000025
:1017080080B489B000AF7860396000237B61002322
:101718003B610023BB610023FB6159E10122FB69A6
:1017280002FA03F37B613B681B687A6913403B61EB
:101738003A697B699A4240F048813B685B6803F0EC
:101748000303012B05D03B685B6803F00303022BFE
:1017580030D17B689B68BB61FB695B00032202FA9E
:1017680003F3DB43BA691340BB613B68DA68FB6982
:101778005B0002FA03F3BA691343BB617B68BA6979
:101788009A607B685B68BB610122FB6902FA03F31C
:10179800DB43BA691340BB613B685B681B0903F014
:1017A8000102FB6902FA03F3BA691343BB617B6860
:1017B800BA695A603B685B6803F00303032B17D0D0
:1017C8007B68DB68BB61FB695B00032202FA03F3F9
:1017D800DB43BA691340BB613B689A68FB695B00ED
:1017E80002FA03F3BA691343BB617B68BA69DA602A
:1017F8003B685B6803F00303022B23D1FB69DA081B
:101808007B68083253F82230BB61FB6903F0070399
:101818009B000F2202FA03F3DB43BA691340BB6152
:101828003B681A69FB6903F007039B0002FA03F39C
:10183800BA691343BB61FB69DA087B680832B96986
:1018480043F822107B681B68BB61FB695B000322BD
:1018580002FA03F3DB43BA691340BB613B685B6878
:1018680003F00302FB695B0002FA03F3BA6913434E
:10187800BB617B68BA691A603B685B6803F44033F4
:10188800002B00F0A2800023FB60574B5B6C564A8C
:1018980043F480435364544B5B6C03F48043FB6014
:1018A800FB68524AFB699B08023352F82330BB613C
:1018B800FB6903F003039B000F2202FA03F3DB43E7
:1018C800BA691340BB617B68494A934219D07B6867
:1018D800484A934213D07B68474A93420DD07B68AD
:1018E800464A934207D07B68454A934201D1042374
:1018F80008E0072306E0032304E0022302E00123B3
:1019080000E00023FA6902F0030292009340BA69EA
:101918001343BB613549FB699B080233BA6941F837
:101928002320384B9B68BB613B69DB43BA69134092
:10193800BB613B685B6803F48013002B03D0BA6972
:101948003B691343BB612F4ABB6993602D4BDB682E
:10195800BB613B69DB43BA691340BB613B685B68A9
:1019680003F40013002B03D0BA693B691343BB612E
:10197800244ABB69D360234B5B68BB613B69DB438B
:10198800BA691340BB613B685B6803F40033002B02
:1019980003D0BA693B691343BB611A4ABB695360F8
:1019A800184B1B68BB613B69DB43BA691340BB61D9
:1019B8003B685B6803F48033002B03D0BA693B694A
:1019C8001343BB610F4ABB691360FB690133FB61B9
:1019D800FB690F2B7FF6A2AE00BF00BF2437BD46C0
:1019E8005DF8047B704700BF0038024000380140B2
:1019F800000002400004024000080240000C0240BF
:101A080000100240003C014080B485B000AF78600F
:101A18000B467B807B681A697B881340002B02D0B9
:101A28000123FB7301E00023FB73FB7B184614378B
:101A3800BD465DF8047B704780B483B000AF786022
:101A48000B467B8013467B707B78002B03D07A880B
:101A58007B689A6103E07B881A047B689A6100BFFF
:101A68000C37BD465DF8047B704780B485B000AF85
:101A780078600B467B807B685B69FB607A88FB68D3
:101A880013401A04FB68D9437B880B401A437B68D0
:101A98009A6100BF1437BD465DF8047B70470000AB
:101AA80080B586B000AF78607B68002B01D1012338
:101AB80067E27B681B6803F00103002B75D0884B35
:101AC8009B6803F00C03042B0CD0854B9B6803F038
:101AD8000C03082B12D1824B5B6803F48003B3F527
:101AE800800F0BD17E4B1B6803F40033002B5BD0B7
:101AF8007B685B68002B57D1012342E27B685B68F7
:101B0800B3F5803F06D1764B1B68754A43F48033A2
:101B180013601DE07B685B68B3F5A02F0CD1704B98
:101B28001B686F4A43F4802313606D4B1B686C4A33
:101B380043F4803313600BE0694B1B68684A23F455
:101B480080331360664B1B68654A23F48023136057
:101B58007B685B68002B13D0FFF790FC386108E0C6
:101B6800FFF78CFC02463B69D31A642B01D9032387
:101B780007E25B4B1B6803F40033002BF0D014E042
:101B8800FFF77CFC386108E0FFF778FC02463B6908
:101B9800D31A642B01D90323F3E1514B1B6803F4D7
:101BA8000033002BF0D100E000BF7B681B6803F016
:101BB8000203002B63D04A4B9B6803F00C03002BF5
:101BC8000BD0474B9B6803F00C03082B1CD1444BEC
:101BD8005B6803F48003002B16D1414B1B6803F0AC
:101BE8000203002B05D07B68DB68012B01D00123A1
:101BF800C7E13B4B1B6823F0F8027B681B69DB00DD
:101C0800374913430B603AE07B68DB68002B20D030
:101C1800344B01221A60FFF731FC386108E0FFF706
:101C28002DFC02463B69D31A022B01D90323A8E1F4
:101C38002B4B1B6803F00203002BF0D0284B1B68CA
:101C480023F0F8027B681B69DB00254913430B600E
:101C580015E0244B00221A60FFF710FC386108E0F9
:101C6800FFF70CFC02463B69D31A022B01D9032368
:101C780087E11B4B1B6803F00203002BF0D17B6844
:101C88001B6803F00803002B36D07B685B69002BC8
:101C980016D0154B01221A60FFF7F0FB386108E0F7
:101CA800FFF7ECFB02463B69D31A022B01D9032349
:101CB80067E10B4B5B6F03F00203002BF0D01BE0D6
:101CC800094B00221A60FFF7D9FB38610EE0FFF7D5
:101CD800D5FB02463B69D31A022B07D9032350E1EF
:101CE8000038024000004742800E4742884B5B6F35
:101CF80003F00203002BEAD17B681B6803F004039E
:101D0800002B00F097800023FB75814B1B6C03F0C0
:101D18008053002B0FD10023BB607D4B1B6C7C4A8A
:101D280043F0805313647A4B1B6C03F08053BB6001
:101D3800BB680123FB75774B1B6803F48073002B8A
:101D480018D1744B1B68734A43F480731360FFF710
:101D580095FB386108E0FFF791FB02463B69D31A0F
:101D6800022B01D903230CE16A4B1B6803F480732F
:101D7800002BF0D07B689B68012B06D1644B1B6F4E
:101D8800634A43F0010313671CE07B689B68052BDB
:101D98000CD15F4B1B6F5E4A43F0040313675C4B27
:101DA8001B6F5B4A43F0010313670BE0584B1B6F33
:101DB800574A23F001031367554B1B6F544A23F00E
:101DC800040313677B689B68002B15D0FFF756FB4D
:101DD80038610AE0FFF752FB02463B69D31A41F229
:101DE8008832934201D90323CBE0494B1B6F03F0A0
:101DF8000203002BEED014E0FFF740FB38610AE045
:101E0800FFF73CFB02463B69D31A41F28832934202
:101E180001D90323B5E03E4B1B6F03F00203002BEF
:101E2800EED1FB7D012B05D1394B1B6C384A23F0D1
:101E3800805313647B689B69002B00F0A180344BAE
:101E48009B6803F00C03082B5CD07B689B69022B12
:101E580041D1314B00221A60FFF710FB386108E0CE
:101E6800FFF70CFB02463B69D31A022B01D9032367
:101E780087E0274B1B6803F00073002BF0D17B68C9
:101E8800DA697B681B6A1A437B685B6A9B011A43A1
:101E98007B689B6A5B08013B1B041A437B68DB6A0F
:101EA8001B061B4913434B601B4B01221A60FFF7AB
:101EB800E5FA386108E0FFF7E1FA02463B69D31A10
:101EC800022B01D903235CE0114B1B6803F000735C
:101ED800002BF0D054E0104B00221A60FFF7CEFA26
:101EE800386108E0FFF7CAFA02463B69D31A022BA9
:101EF80001D9032345E0064B1B6803F00073002B50
:101F0800F0D13DE07B689B69012B07D1012338E0C4
:101F18000038024000700040600047421B4B5B687D
:101F2800FB607B689B69012B28D0FB6803F4800267
:101F38007B68DB699A4221D1FB6803F03F027B682A
:101F48001B6A9A421AD1FA6847F6C07313407A6836
:101F5800526A9201934211D1FB6803F440327B68C4
:101F68009B6A5B08013B1B049A4207D1FB6803F09C
:101F780070627B68DB6A1B069A4201D0012300E08D
:101F8800002318461837BD4680BD00BF0038024000
:101F980080B584B000AF786039607B68002B01D1D0
:101FA8000123CCE0684B1B6803F007033A689A42A8
:101FB8000CD9654B3A68D2B21A70634B1B6803F0B0
:101FC80007033A689A4201D00123B8E07B681B688E
:101FD80003F00203002B20D07B681B6803F0040386
:101FE800002B05D0594B9B68584A43F4E053936043
:101FF8007B681B6803F00803002B05D0534B9B68D4
:10200800524A43F460439360504B9B6823F0F002BC
:102018007B689B684D4913438B607B681B6803F0A2
:102028000103002B44D07B685B68012B07D1474B29
:102038001B6803F40033002B19D101237FE07B6870
:102048005B68022B03D07B685B68032B07D13F4B8F
:102058001B6803F00073002B09D101236FE03B4B91
:102068001B6803F00203002B01D1012367E0374B03
:102078009B6823F003027B685B68344913438B60D9
:10208800FFF7FCF9F8600AE0FFF7F8F90246FB6889
:10209800D31A41F28832934201D903234FE02B4BE4
:1020A8009B6803F00C027B685B689B009A42EBD14B
:1020B800254B1B6803F007033A689A420CD2224B5F
:1020C8003A68D2B21A70204B1B6803F007033A68CB
:1020D8009A4201D0012332E07B681B6803F00403B5
:1020E800002B08D0194B9B6823F4E0527B68DB680F
:1020F800164913438B607B681B6803F00803002BA9
:1021080009D0124B9B6823F460427B681B69DB0093
:102118000E4913438B6000F021F802460B4B9B6875
:102128001B0903F00F030A49CB5C22FA03F3094A9F
:102138001360094B1B681846FFF75CF90023184623
:102148001037BD4680BD00BF003C02400038024049
:10215800482C000830000020340000202DE9B04F42
:1021680094B000AF00237B640023FB6400233B642E
:102178000023BB64794B9B6803F00C03082B0DD03C
:10218800082B00F2E180002B02D0042B03D0DBE007
:10219800734BBB64DBE0734BBB64D8E06F4B5B688D
:1021A80003F03F037B646D4B5B6803F48003002BF3
:1021B80063D06A4B5B689B090022BB63FA63BB6B05
:1021C800C3F308033B6300237B63D7E90C4522462E
:1021D8002B464FF000004FF00001590141EAD2614F
:1021E800500102460B462146511A3961294663EBD4
:1021F80001037B614FF000024FF00003D7E904AB05
:1022080059468B01514643EA916351468A0151462A
:10221800B2EB0108594663EB01094FF000024FF099
:1022280000034FEAC90343EA58734FEAC8029046CD
:102238009946234618EB0303BB602B4649EB03037F
:10224800FB604FF000024FF00003D7E90245294632
:102258004B02214643EAD15321464A021046194609
:102268007B6C0022BB62FA62D7E90A23FDF7B0FF54
:1022780002460B461346FB6458E0384B5B689B09E3
:10228800002218461146C0F308033B6200237B6214
:10229800D7E9088942464B464FF000004FF000014D
:1022A800590141EAD261500102460B464146B2EB60
:1022B800010A494663EB010B4FF000024FF000039F
:1022C8004FEA8B1343EA9A634FEA8A12B2EB0A0485
:1022D80063EB0B054FF000024FF00003EB0043EAFD
:1022E8005473E20014461D464346E3183B604B46D0
:1022F80045EB03037B604FF000024FF00003D7E982
:10230800004529468B02214643EA915321468A0219
:10231800104619467B6C0022BB61FA61D7E9062397
:10232800FDF756FF02460B461346FB640B4B5B68F2
:102338001B0C03F0030301335B003B64FA6C3B6C3A
:10234800B2FBF3F3BB6402E0054BBB6400BFBB6C9C
:1023580018465037BD46BDE8B08F00BF0038024070
:102368000024F40000127A0080B582B000AF7860D3
:102378007B68002B01D1012341E07B6893F83D3055
:10238800DBB2002B06D17B68002283F83C207868FA
:10239800FEF74AFF7B68022283F83D207B681A68B3
:1023A8007B6804331946104600F070FA7B680122F6
:1023B80083F846207B68012283F83E207B6801224F
:1023C80083F83F207B68012283F840207B68012244
:1023D80083F841207B68012283F842207B68012230
:1023E80083F843207B68012283F844207B6801221C
:1023F80083F845207B68012283F83D200023184696
:102408000837BD4680BD000080B485B000AF786055
:102418007B6893F83D30DBB2012B01D0012344E007
:102428007B68022283F83D207B681B68DA687B683A
:102438001B6842F00102DA607B681B681E4A9342FF
:1024480018D07B681B68B3F1804F13D07B681B687A
:102458001A4A93420ED07B681B68194A934209D0E6
:102468007B681B68174A934204D07B681B68164A2E
:10247800934211D17B681B689B6803F00703FB60DC
:10248800FB68062B10D07B681B681A687B681B6882
:1024980042F001021A6007E07B681B681A687B68D3
:1024A8001B6842F001021A60002318461437BD4623
:1024B8005DF8047B704700BF000001400004004045
:1024C80000080040000C00400040014080B584B086
:1024D80000AF78607B681B68DB68FB607B681B6803
:1024E8001B69BB60BB6803F00203002B20D0FB68AC
:1024F80003F00203002B1BD07B681B686FF00202FD
:102508001A617B6801221A777B681B689B6903F054
:102518000303002B03D0786800F099F905E0786888
:1025280000F08BF9786800F09CF97B6800221A7734
:10253800BB6803F00403002B20D0FB6803F00403FE
:10254800002B1BD07B681B686FF004021A617B6844
:1025580002221A777B681B689B6903F44073002B7F
:1025680003D0786800F073F905E0786800F065F941
:10257800786800F076F97B6800221A77BB6803F068
:102588000803002B20D0FB6803F00803002B1BD0A6
:102598007B681B686FF008021A617B6804221A774F
:1025A8007B681B68DB6903F00303002B03D07868A2
:1025B80000F04DF905E0786800F03FF9786800F020
:1025C80050F97B6800221A77BB6803F01003002BD0
:1025D80020D0FB6803F01003002B1BD07B681B681E
:1025E8006FF010021A617B6808221A777B681B68F3
:1025F800DB6903F44073002B03D0786800F027F9F7
:1026080005E0786800F019F9786800F02AF97B6825
:1026180000221A77BB6803F00103002B0CD0FB687B
:1026280003F00103002B07D07B681B686FF00102E1
:102638001A617868FEF750FABB6803F08003002B34
:102648000CD0FB6803F08003002B07D07B681B6865
:102658006FF080021A61786800F0B0FABB6803F086
:102668004003002B0CD0FB6803F04003002B07D07D
:102678007B681B686FF040021A61786800F0FBF80D
:10268800BB6803F02003002B0CD0FB6803F0200389
:10269800002B07D07B681B686FF020021A617868EE
:1026A80000F082FA00BF1037BD4680BD80B584B007
:1026B80000AF786039600023FB737B6893F83C3087
:1026C800012B01D10223B4E07B68012283F83C206E
:1026D8007B68022283F83D207B681B689B68BB608F
:1026E800BB6823F07703BB60BB6823F47F43BB6000
:1026F8007B681B68BA689A603B681B68B3F5005F23
:102708003ED0B3F5005F00F28780B3F5805F00F03C
:102718008680B3F5805F7FD8702B1AD0702B7BD85A
:10272800602B50D0602B77D8502B3CD0502B73D8CF
:10273800402B58D0402B6FD8302B64D0302B6BD81F
:10274800202B60D0202B67D8002B5CD0102B5AD0C0
:1027580062E07B6818683B6899683B685A683B6820
:10276800DB6800F093F97B681B689B68BB60BB68FB
:1027780043F07703BB607B681B68BA689A604FE0D8
:102788007B6818683B6899683B685A683B68DB68EF
:1027980000F07CF97B681B689A687B681B6842F4C8
:1027A80080429A603CE07B6818683B6859683B68DF
:1027B800DB681A4600F0F0F87B681B685021184661
:1027C80000F049F92CE07B6818683B6859683B6859
:1027D800DB681A4600F00FF97B681B686021184611
:1027E80000F039F91CE07B6818683B6859683B6859
:1027F800DB681A4600F0D0F87B681B684021184651
:1028080000F029F90CE07B681A683B681B681946D8
:10281800104600F020F903E00123FB7300E000BF3D
:102828007B68012283F83D207B68002283F83C20E6
:10283800FB7B18461037BD4680BD80B483B000AF1F
:10284800786000BF0C37BD465DF8047B704780B4E4
:1028580083B000AF786000BF0C37BD465DF8047BDD
:10286800704780B483B000AF786000BF0C37BD46B6
:102878005DF8047B704780B483B000AF786000BF18
:102888000C37BD465DF8047B7047000080B485B006
:1028980000AF786039607B681B68FB607B68374AEB
:1028A80093420FD07B68B3F1804F0BD07B68344ADA
:1028B800934207D07B68334A934203D07B68324AFD
:1028C800934208D1FB6823F07003FB603B685B68A8
:1028D800FA681343FB607B68284A93421BD07B68E5
:1028E800B3F1804F17D07B68254A934213D07B6899
:1028F800244A93420FD07B68234A93420BD07B68CB
:10290800224A934207D07B68214A934203D07B68CE
:10291800204A934208D1FB6823F44073FB603B686C
:10292800DB68FA681343FB60FB6823F080023B68AE
:102938005B691343FB603B689A687B68DA623B68B3
:102948001A687B689A627B680C4A934203D13B6899
:102958001A697B681A637B681B6843F004027B680A
:102968001A607B6801225A617B68FA681A6000BFA6
:102978001437BD465DF8047B704700BF0000014076
:102988000004004000080040000C004000400140E6
:10299800004401400048014080B487B000AFF860AF
:1029A800B9607A60FB681B6A7B61FB681B6A23F06D
:1029B8000102FB681A62FB689B693B613B6923F073
:1029C800F0033B617B681B013A6913433B617B69F8
:1029D80023F00A037B617A69BB6813437B61FB6858
:1029E8003A699A61FB687A691A6200BF1C37BD466A
:1029F8005DF8047B704780B487B000AFF860B960B9
:102A08007A60FB681B6A7B61FB681B6A23F0100213
:102A1800FB681A62FB689B693B613B6923F470435E
:102A28003B617B681B033A6913433B617B6923F075
:102A3800A0037B61BB681B017A6913437B61FB6858
:102A48003A699A61FB687A691A6200BF1C37BD4609
:102A58005DF8047B704780B485B000AF786039605A
:102A68007B689B68FB60FB6823F07003FB603A6837
:102A7800FB68134343F00703FB607B68FA689A60BE
:102A880000BF1437BD465DF8047B704780B487B03B
:102A980000AFF860B9607A603B60FB689B687B6157
:102AA8007B6923F47F437B613B681A027B681A4386
:102AB800BB6813437A6913437B61FB687A699A6040
:102AC80000BF1C37BD465DF8047B704780B485B0F5
:102AD80000AF786039607B6893F83C30012B01D1F6
:102AE800022350E07B68012283F83C207B680222A5
:102AF80083F83D207B681B685B68FB607B681B680C
:102B08009B68BB60FB6823F07003FB603B681B6835
:102B1800FA681343FB607B681B68FA685A607B6835
:102B28001B681C4A934218D07B681B68B3F1804F1E
:102B380013D07B681B68184A93420ED07B681B68C9
:102B4800164A934209D07B681B68154A934204D001
:102B58007B681B68134A93420CD1BB6823F080033F
:102B6800BB603B685B68BA681343BB607B681B68E3
:102B7800BA689A607B68012283F83D207B6800224E
:102B880083F83C20002318461437BD465DF8047BC3
:102B9800704700BF000001400004004000080040EA
:102BA800000C00400040014080B483B000AF786062
:102BB80000BF0C37BD465DF8047B704780B483B016
:102BC80000AF786000BF0C37BD465DF8047B7047E6
:102BD80002440346934200D1704703F8011BF9E70A
:102BE80070B50D4D0D4C641BA4100026A64209D1EA
:102BF8000B4D0C4C00F018F8641BA4100026A642DC
:102C080005D170BD55F8043B98470136EEE755F8F5
:102C1800043B98470136F2E7602C0008602C000856
:102C2800602C0008642C0008F8B500BFF8BC08BC8C
:102C38009E467047F8B500BFF8BC08BC9E46704772
:102C48000000000000000000010203040607080954
:082C5800B0D5FF7F0100000070
:042C6000BD010008AA
:042C640099010008CA
:102C68000A030D00FC60DAF266B6BEE0FEF600006C
:102C7800000100020004000800100020004000804D
:102C88003132334134353642373839432A302344D8
:0C2C98000024F400100000000100000007
:040000050800136577
:00000001FF
